{
  "_format": "hh3-artifact-1",
  "contractName": "SkillNFT",
  "sourceName": "contracts/SkillNFT.sol",
  "abi": [
    {
      "inputs": [],
      "stateMutability": "nonpayable",
      "type": "constructor"
    },
    {
      "inputs": [
        {
          "internalType": "address",
          "name": "sender",
          "type": "address"
        },
        {
          "internalType": "uint256",
          "name": "tokenId",
          "type": "uint256"
        },
        {
          "internalType": "address",
          "name": "owner",
          "type": "address"
        }
      ],
      "name": "ERC721IncorrectOwner",
      "type": "error"
    },
    {
      "inputs": [
        {
          "internalType": "address",
          "name": "operator",
          "type": "address"
        },
        {
          "internalType": "uint256",
          "name": "tokenId",
          "type": "uint256"
        }
      ],
      "name": "ERC721InsufficientApproval",
      "type": "error"
    },
    {
      "inputs": [
        {
          "internalType": "address",
          "name": "approver",
          "type": "address"
        }
      ],
      "name": "ERC721InvalidApprover",
      "type": "error"
    },
    {
      "inputs": [
        {
          "internalType": "address",
          "name": "operator",
          "type": "address"
        }
      ],
      "name": "ERC721InvalidOperator",
      "type": "error"
    },
    {
      "inputs": [
        {
          "internalType": "address",
          "name": "owner",
          "type": "address"
        }
      ],
      "name": "ERC721InvalidOwner",
      "type": "error"
    },
    {
      "inputs": [
        {
          "internalType": "address",
          "name": "receiver",
          "type": "address"
        }
      ],
      "name": "ERC721InvalidReceiver",
      "type": "error"
    },
    {
      "inputs": [
        {
          "internalType": "address",
          "name": "sender",
          "type": "address"
        }
      ],
      "name": "ERC721InvalidSender",
      "type": "error"
    },
    {
      "inputs": [
        {
          "internalType": "uint256",
          "name": "tokenId",
          "type": "uint256"
        }
      ],
      "name": "ERC721NonexistentToken",
      "type": "error"
    },
    {
      "anonymous": false,
      "inputs": [
        {
          "indexed": true,
          "internalType": "address",
          "name": "owner",
          "type": "address"
        },
        {
          "indexed": true,
          "internalType": "address",
          "name": "approved",
          "type": "address"
        },
        {
          "indexed": true,
          "internalType": "uint256",
          "name": "tokenId",
          "type": "uint256"
        }
      ],
      "name": "Approval",
      "type": "event"
    },
    {
      "anonymous": false,
      "inputs": [
        {
          "indexed": true,
          "internalType": "address",
          "name": "owner",
          "type": "address"
        },
        {
          "indexed": true,
          "internalType": "address",
          "name": "operator",
          "type": "address"
        },
        {
          "indexed": false,
          "internalType": "bool",
          "name": "approved",
          "type": "bool"
        }
      ],
      "name": "ApprovalForAll",
      "type": "event"
    },
    {
      "anonymous": false,
      "inputs": [
        {
          "indexed": false,
          "internalType": "uint256",
          "name": "_fromTokenId",
          "type": "uint256"
        },
        {
          "indexed": false,
          "internalType": "uint256",
          "name": "_toTokenId",
          "type": "uint256"
        }
      ],
      "name": "BatchMetadataUpdate",
      "type": "event"
    },
    {
      "anonymous": false,
      "inputs": [
        {
          "indexed": true,
          "internalType": "uint256",
          "name": "tokenId",
          "type": "uint256"
        },
        {
          "indexed": true,
          "internalType": "address",
          "name": "user",
          "type": "address"
        },
        {
          "indexed": false,
          "internalType": "uint64",
          "name": "expiresAt",
          "type": "uint64"
        },
        {
          "indexed": false,
          "internalType": "string",
          "name": "skill",
          "type": "string"
        },
        {
          "indexed": true,
          "internalType": "address",
          "name": "issuer",
          "type": "address"
        }
      ],
      "name": "CredentialMinted",
      "type": "event"
    },
    {
      "anonymous": false,
      "inputs": [
        {
          "indexed": false,
          "internalType": "uint256",
          "name": "_tokenId",
          "type": "uint256"
        }
      ],
      "name": "MetadataUpdate",
      "type": "event"
    },
    {
      "anonymous": false,
      "inputs": [
        {
          "indexed": true,
          "internalType": "address",
          "name": "from",
          "type": "address"
        },
        {
          "indexed": true,
          "internalType": "address",
          "name": "to",
          "type": "address"
        },
        {
          "indexed": true,
          "internalType": "uint256",
          "name": "tokenId",
          "type": "uint256"
        }
      ],
      "name": "Transfer",
      "type": "event"
    },
    {
      "anonymous": false,
      "inputs": [
        {
          "indexed": true,
          "internalType": "uint256",
          "name": "tokenId",
          "type": "uint256"
        },
        {
          "indexed": true,
          "internalType": "address",
          "name": "user",
          "type": "address"
        },
        {
          "indexed": false,
          "internalType": "uint64",
          "name": "expires",
          "type": "uint64"
        }
      ],
      "name": "UpdateUser",
      "type": "event"
    },
    {
      "inputs": [
        {
          "internalType": "address",
          "name": "to",
          "type": "address"
        },
        {
          "internalType": "uint256",
          "name": "tokenId",
          "type": "uint256"
        }
      ],
      "name": "approve",
      "outputs": [],
      "stateMutability": "nonpayable",
      "type": "function"
    },
    {
      "inputs": [
        {
          "internalType": "address",
          "name": "owner",
          "type": "address"
        }
      ],
      "name": "balanceOf",
      "outputs": [
        {
          "internalType": "uint256",
          "name": "",
          "type": "uint256"
        }
      ],
      "stateMutability": "view",
      "type": "function"
    },
    {
      "inputs": [
        {
          "internalType": "uint256",
          "name": "tokenId",
          "type": "uint256"
        }
      ],
      "name": "getApproved",
      "outputs": [
        {
          "internalType": "address",
          "name": "",
          "type": "address"
        }
      ],
      "stateMutability": "view",
      "type": "function"
    },
    {
      "inputs": [
        {
          "internalType": "address",
          "name": "owner",
          "type": "address"
        },
        {
          "internalType": "address",
          "name": "operator",
          "type": "address"
        }
      ],
      "name": "isApprovedForAll",
      "outputs": [
        {
          "internalType": "bool",
          "name": "",
          "type": "bool"
        }
      ],
      "stateMutability": "view",
      "type": "function"
    },
    {
      "inputs": [
        {
          "internalType": "address",
          "name": "to",
          "type": "address"
        },
        {
          "internalType": "string",
          "name": "uri",
          "type": "string"
        },
        {
          "internalType": "uint64",
          "name": "expires",
          "type": "uint64"
        },
        {
          "internalType": "string",
          "name": "skill",
          "type": "string"
        }
      ],
      "name": "mintToUser",
      "outputs": [
        {
          "internalType": "uint256",
          "name": "",
          "type": "uint256"
        }
      ],
      "stateMutability": "nonpayable",
      "type": "function"
    },
    {
      "inputs": [],
      "name": "name",
      "outputs": [
        {
          "internalType": "string",
          "name": "",
          "type": "string"
        }
      ],
      "stateMutability": "view",
      "type": "function"
    },
    {
      "inputs": [
        {
          "internalType": "uint256",
          "name": "tokenId",
          "type": "uint256"
        }
      ],
      "name": "ownerOf",
      "outputs": [
        {
          "internalType": "address",
          "name": "",
          "type": "address"
        }
      ],
      "stateMutability": "view",
      "type": "function"
    },
    {
      "inputs": [
        {
          "internalType": "address",
          "name": "from",
          "type": "address"
        },
        {
          "internalType": "address",
          "name": "to",
          "type": "address"
        },
        {
          "internalType": "uint256",
          "name": "tokenId",
          "type": "uint256"
        }
      ],
      "name": "safeTransferFrom",
      "outputs": [],
      "stateMutability": "nonpayable",
      "type": "function"
    },
    {
      "inputs": [
        {
          "internalType": "address",
          "name": "from",
          "type": "address"
        },
        {
          "internalType": "address",
          "name": "to",
          "type": "address"
        },
        {
          "internalType": "uint256",
          "name": "tokenId",
          "type": "uint256"
        },
        {
          "internalType": "bytes",
          "name": "data",
          "type": "bytes"
        }
      ],
      "name": "safeTransferFrom",
      "outputs": [],
      "stateMutability": "nonpayable",
      "type": "function"
    },
    {
      "inputs": [
        {
          "internalType": "address",
          "name": "operator",
          "type": "address"
        },
        {
          "internalType": "bool",
          "name": "approved",
          "type": "bool"
        }
      ],
      "name": "setApprovalForAll",
      "outputs": [],
      "stateMutability": "nonpayable",
      "type": "function"
    },
    {
      "inputs": [
        {
          "internalType": "uint256",
          "name": "tokenId",
          "type": "uint256"
        },
        {
          "internalType": "address",
          "name": "user",
          "type": "address"
        },
        {
          "internalType": "uint64",
          "name": "expires",
          "type": "uint64"
        }
      ],
      "name": "setUser",
      "outputs": [],
      "stateMutability": "nonpayable",
      "type": "function"
    },
    {
      "inputs": [
        {
          "internalType": "bytes4",
          "name": "interfaceId",
          "type": "bytes4"
        }
      ],
      "name": "supportsInterface",
      "outputs": [
        {
          "internalType": "bool",
          "name": "",
          "type": "bool"
        }
      ],
      "stateMutability": "view",
      "type": "function"
    },
    {
      "inputs": [],
      "name": "symbol",
      "outputs": [
        {
          "internalType": "string",
          "name": "",
          "type": "string"
        }
      ],
      "stateMutability": "view",
      "type": "function"
    },
    {
      "inputs": [
        {
          "internalType": "uint256",
          "name": "tokenId",
          "type": "uint256"
        }
      ],
      "name": "tokenURI",
      "outputs": [
        {
          "internalType": "string",
          "name": "",
          "type": "string"
        }
      ],
      "stateMutability": "view",
      "type": "function"
    },
    {
      "inputs": [
        {
          "internalType": "address",
          "name": "from",
          "type": "address"
        },
        {
          "internalType": "address",
          "name": "to",
          "type": "address"
        },
        {
          "internalType": "uint256",
          "name": "tokenId",
          "type": "uint256"
        }
      ],
      "name": "transferFrom",
      "outputs": [],
      "stateMutability": "nonpayable",
      "type": "function"
    },
    {
      "inputs": [
        {
          "internalType": "uint256",
          "name": "tokenId",
          "type": "uint256"
        }
      ],
      "name": "userExpires",
      "outputs": [
        {
          "internalType": "uint64",
          "name": "",
          "type": "uint64"
        }
      ],
      "stateMutability": "view",
      "type": "function"
    },
    {
      "inputs": [
        {
          "internalType": "uint256",
          "name": "tokenId",
          "type": "uint256"
        }
      ],
      "name": "userOf",
      "outputs": [
        {
          "internalType": "address",
          "name": "",
          "type": "address"
        }
      ],
      "stateMutability": "view",
      "type": "function"
    }
  ],
  "bytecode": "0x608060405234801561000f575f5ffd5b506040518060400160405280600f81526020016e14dada5b1b10dc9959195b9d1a585b608a1b8152506040518060400160405280600581526020016414d2d2531360da1b815250815f90816100649190610111565b5060016100718282610111565b5050506101cb565b634e487b7160e01b5f52604160045260245ffd5b600181811c908216806100a157607f821691505b6020821081036100bf57634e487b7160e01b5f52602260045260245ffd5b50919050565b601f82111561010c57805f5260205f20601f840160051c810160208510156100ea5750805b601f840160051c820191505b81811015610109575f81556001016100f6565b50505b505050565b81516001600160401b0381111561012a5761012a610079565b61013e81610138845461008d565b846100c5565b6020601f821160018114610170575f83156101595750848201515b5f19600385901b1c1916600184901b178455610109565b5f84815260208120601f198516915b8281101561019f578785015182556020948501946001909201910161017f565b50848210156101bc57868401515f19600387901b60f8161c191681555b50505050600190811b01905550565b61154a806101d85f395ff3fe608060405234801561000f575f5ffd5b5060043610610106575f3560e01c806370a082311161009e578063b88d4fde1161006e578063b88d4fde1461023a578063c2f1f14a1461024d578063c87b56dd14610260578063e030565e14610273578063e985e9c514610286575f5ffd5b806370a08231146101e15780638fc88c48146101f457806395d89b411461021f578063a22cb46514610227575f5ffd5b806323b872dd116100d957806323b872dd1461018757806342842e0e1461019a578063562bf3f1146101ad5780636352211e146101ce575f5ffd5b806301ffc9a71461010a57806306fdde0314610132578063081812fc14610147578063095ea7b314610172575b5f5ffd5b61011d610118366004610fc2565b610299565b60405190151581526020015b60405180910390f35b61013a6102b5565b604051610129919061100b565b61015a61015536600461101d565b610344565b6040516001600160a01b039091168152602001610129565b61018561018036600461104f565b61036b565b005b610185610195366004611077565b61037a565b6101856101a8366004611077565b610408565b6101c06101bb36600461116e565b610427565b604051908152602001610129565b61015a6101dc36600461101d565b6104c3565b6101c06101ef3660046111f1565b6104cd565b61020761020236600461101d565b610512565b6040516001600160401b039091168152602001610129565b61013a610535565b61018561023536600461120a565b610544565b610185610248366004611243565b61054f565b61015a61025b36600461101d565b610567565b61013a61026e36600461101d565b610571565b6101856102813660046112ad565b61057c565b61011d6102943660046112e6565b610587565b5f63acf6e2fb60e01b6001600160e01b03198316145b92915050565b60605f80546102c390611317565b80601f01602080910402602001604051908101604052809291908181526020018280546102ef90611317565b801561033a5780601f106103115761010080835404028352916020019161033a565b820191905f5260205f20905b81548152906001019060200180831161031d57829003601f168201915b5050505050905090565b5f61034e826105b4565b505f828152600460205260409020546001600160a01b03166102af565b6103768282336105ec565b5050565b6001600160a01b0382166103a857604051633250574960e11b81525f60048201526024015b60405180910390fd5b5f6103b48383336105f9565b9050836001600160a01b0316816001600160a01b031614610402576040516364283d7b60e01b81526001600160a01b038086166004830152602482018490528216604482015260640161039f565b50505050565b61042283838360405180602001604052805f81525061054f565b505050565b5f5f60085f81546104379061134f565b9182905550905061044886826106eb565b6104528186610704565b6001600160401b0384161561046c5761046c81878661057c565b336001600160a01b0316866001600160a01b0316827f610ee8949624aa157d72c4dea26d32b4605c290bdde3ceaf0464a2609ef8d22287876040516104b2929190611373565b60405180910390a495945050505050565b5f6102af826105b4565b5f6001600160a01b0382166104f7576040516322718ad960e21b81525f600482015260240161039f565b506001600160a01b03165f9081526003602052604090205490565b5f81815260076020526040812054600160a01b90046001600160401b03166102af565b6060600180546102c390611317565b610376338383610753565b61055a84848461037a565b61040233858585856107f1565b5f6102af82610919565b60606102af82610960565b610422838383610a6b565b6001600160a01b039182165f90815260056020908152604080832093909416825291909152205460ff1690565b5f818152600260205260408120546001600160a01b0316806102af57604051637e27328960e01b81526004810184905260240161039f565b6104228383836001610b35565b5f828152600260205260408120546001600160a01b039081169083161561062557610625818486610c39565b6001600160a01b0381161561065f576106405f855f5f610b35565b6001600160a01b0381165f90815260036020526040902080545f190190555b6001600160a01b0385161561068d576001600160a01b0385165f908152600360205260409020805460010190555b5f8481526002602052604080822080546001600160a01b0319166001600160a01b0389811691821790925591518793918516917fddf252ad1be2c89b69c2b068fc378daa952ba7f163c4a11628f55a4df523b3ef91a4949350505050565b610376828260405180602001604052805f815250610c9d565b5f82815260066020526040902061071b82826113d8565b506040518281527ff8e1a15aba9398e019f0b49df1a4fde98ee17ae345cb5f6b5e2c27f5033e8ce79060200160405180910390a15050565b6001600160a01b03821661078557604051630b61174360e31b81526001600160a01b038316600482015260240161039f565b6001600160a01b038381165f81815260056020908152604080832094871680845294825291829020805460ff191686151590811790915591519182527f17307eab39ab6107e8899845ad3d59bd9653f200f220920489ca2b5937696c31910160405180910390a3505050565b6001600160a01b0383163b1561091257604051630a85bd0160e11b81526001600160a01b0384169063150b7a0290610833908890889087908790600401611492565b6020604051808303815f875af192505050801561086d575060408051601f3d908101601f1916820190925261086a918101906114ce565b60015b6108d4573d80801561089a576040519150601f19603f3d011682016040523d82523d5f602084013e61089f565b606091505b5080515f036108cc57604051633250574960e11b81526001600160a01b038516600482015260240161039f565b805160208201fd5b6001600160e01b03198116630a85bd0160e11b1461091057604051633250574960e11b81526001600160a01b038516600482015260240161039f565b505b5050505050565b5f8181526007602052604081205442600160a01b9091046001600160401b03161061095957505f908152600760205260409020546001600160a01b031690565b505f919050565b606061096b826105b4565b505f828152600660205260408120805461098490611317565b80601f01602080910402602001604051908101604052809291908181526020018280546109b090611317565b80156109fb5780601f106109d2576101008083540402835291602001916109fb565b820191905f5260205f20905b8154815290600101906020018083116109de57829003601f168201915b505050505090505f610a1760408051602081019091525f815290565b905080515f03610a28575092915050565b815115610a5a578082604051602001610a42929190611500565b60405160208183030381529060405292505050919050565b610a6384610cb4565b949350505050565b610a753384610d25565b610ab65760405162461bcd60e51b8152602060048201526012602482015271139bdd081bdddb995c8bd85c1c1c9bdd995960721b604482015260640161039f565b5f8381526007602090815260409182902080546001600160a01b0386166001600160e01b03199091168117600160a01b6001600160401b03871690810291909117835593519384529092909186917f4e06b4e7000e659094299b3533b47b6aa8ad048e95e872d23d1f4ee55af89cfe910160405180910390a350505050565b8080610b4957506001600160a01b03821615155b15610c0a575f610b58846105b4565b90506001600160a01b03831615801590610b845750826001600160a01b0316816001600160a01b031614155b8015610b975750610b958184610587565b155b15610bc05760405163a9fbf51f60e01b81526001600160a01b038416600482015260240161039f565b8115610c085783856001600160a01b0316826001600160a01b03167f8c5be1e5ebec7d5bd14f71427d1e84f3dd0314c0f7b2291e5b200ac8c7c3b92560405160405180910390a45b505b50505f90815260046020526040902080546001600160a01b0319166001600160a01b0392909216919091179055565b610c44838383610d82565b610422576001600160a01b038316610c7257604051637e27328960e01b81526004810182905260240161039f565b60405163177e802f60e01b81526001600160a01b03831660048201526024810182905260440161039f565b610ca78383610de3565b610422335f8585856107f1565b6060610cbf826105b4565b505f610cd560408051602081019091525f815290565b90505f815111610cf35760405180602001604052805f815250610d1e565b80610cfd84610e44565b604051602001610d0e929190611500565b6040516020818303038152906040525b9392505050565b5f5f610d30836104c3565b9050806001600160a01b0316846001600160a01b03161480610d575750610d578185610587565b80610a635750836001600160a01b0316610d7084610344565b6001600160a01b031614949350505050565b5f6001600160a01b03831615801590610a635750826001600160a01b0316846001600160a01b03161480610dbb5750610dbb8484610587565b80610a635750505f908152600460205260409020546001600160a01b03908116911614919050565b6001600160a01b038216610e0c57604051633250574960e11b81525f600482015260240161039f565b5f610e1883835f6105f9565b90506001600160a01b03811615610422576040516339e3563760e11b81525f600482015260240161039f565b60605f610e5083610ed3565b60010190505f816001600160401b03811115610e6e57610e6e6110b1565b6040519080825280601f01601f191660200182016040528015610e98576020820181803683370190505b5090508181016020015b5f19016f181899199a1a9b1b9c1cb0b131b232b360811b600a86061a8153600a8504945084610ea257509392505050565b5f8072184f03e93ff9f4daa797ed6e38ed64bf6a1f0160401b8310610f115772184f03e93ff9f4daa797ed6e38ed64bf6a1f0160401b830492506040015b6d04ee2d6d415b85acef81000000008310610f3d576d04ee2d6d415b85acef8100000000830492506020015b662386f26fc100008310610f5b57662386f26fc10000830492506010015b6305f5e1008310610f73576305f5e100830492506008015b6127108310610f8757612710830492506004015b60648310610f99576064830492506002015b600a83106102af5760010192915050565b6001600160e01b031981168114610fbf575f5ffd5b50565b5f60208284031215610fd2575f5ffd5b8135610d1e81610faa565b5f81518084528060208401602086015e5f602082860101526020601f19601f83011685010191505092915050565b602081525f610d1e6020830184610fdd565b5f6020828403121561102d575f5ffd5b5035919050565b80356001600160a01b038116811461104a575f5ffd5b919050565b5f5f60408385031215611060575f5ffd5b61106983611034565b946020939093013593505050565b5f5f5f60608486031215611089575f5ffd5b61109284611034565b92506110a060208501611034565b929592945050506040919091013590565b634e487b7160e01b5f52604160045260245ffd5b5f5f6001600160401b038411156110de576110de6110b1565b50604051601f19601f85018116603f011681018181106001600160401b038211171561110c5761110c6110b1565b604052838152905080828401851015611123575f5ffd5b838360208301375f60208583010152509392505050565b5f82601f830112611149575f5ffd5b610d1e838335602085016110c5565b80356001600160401b038116811461104a575f5ffd5b5f5f5f5f60808587031215611181575f5ffd5b61118a85611034565b935060208501356001600160401b038111156111a4575f5ffd5b6111b08782880161113a565b9350506111bf60408601611158565b915060608501356001600160401b038111156111d9575f5ffd5b6111e58782880161113a565b91505092959194509250565b5f60208284031215611201575f5ffd5b610d1e82611034565b5f5f6040838503121561121b575f5ffd5b61122483611034565b915060208301358015158114611238575f5ffd5b809150509250929050565b5f5f5f5f60808587031215611256575f5ffd5b61125f85611034565b935061126d60208601611034565b92506040850135915060608501356001600160401b0381111561128e575f5ffd5b8501601f8101871361129e575f5ffd5b6111e5878235602084016110c5565b5f5f5f606084860312156112bf575f5ffd5b833592506112cf60208501611034565b91506112dd60408501611158565b90509250925092565b5f5f604083850312156112f7575f5ffd5b61130083611034565b915061130e60208401611034565b90509250929050565b600181811c9082168061132b57607f821691505b60208210810361134957634e487b7160e01b5f52602260045260245ffd5b50919050565b5f6001820161136c57634e487b7160e01b5f52601160045260245ffd5b5060010190565b6001600160401b0383168152604060208201525f610a636040830184610fdd565b601f82111561042257805f5260205f20601f840160051c810160208510156113b95750805b601f840160051c820191505b81811015610912575f81556001016113c5565b81516001600160401b038111156113f1576113f16110b1565b611405816113ff8454611317565b84611394565b6020601f821160018114611437575f83156114205750848201515b5f19600385901b1c1916600184901b178455610912565b5f84815260208120601f198516915b828110156114665787850151825560209485019460019092019101611446565b508482101561148357868401515f19600387901b60f8161c191681555b50505050600190811b01905550565b6001600160a01b03858116825284166020820152604081018390526080606082018190525f906114c490830184610fdd565b9695505050505050565b5f602082840312156114de575f5ffd5b8151610d1e81610faa565b5f81518060208401855e5f93019283525090919050565b5f610a6361150e83866114e9565b846114e956fea2646970667358221220cc21d244065c590b8606d9bfb4a585c76cd57ff56772efaa6d5eae96ce0418e464736f6c634300081c0033",
  "linkReferences": {},
  "deployedLinkReferences": {},
  "immutableReferences": {},
  "inputSourceName": "project/contracts/SkillNFT.sol",
  "buildInfoId": "solc-0_8_28-34662d8233be3112a5c10b1eb9cd1b76593f5067"
}