{
  "_format": "hh3-artifact-1",
  "contractName": "CredentialVerifier",
  "sourceName": "contracts/CredentialVerifier.sol",
  "abi": [
    {
      "inputs": [
        {
          "internalType": "address",
          "name": "_skillNFT",
          "type": "address"
        }
      ],
      "stateMutability": "nonpayable",
      "type": "constructor"
    },
    {
      "inputs": [
        {
          "internalType": "uint256",
          "name": "tokenId",
          "type": "uint256"
        }
      ],
      "name": "getCredential",
      "outputs": [
        {
          "internalType": "address",
          "name": "holder",
          "type": "address"
        },
        {
          "internalType": "string",
          "name": "uri",
          "type": "string"
        },
        {
          "internalType": "uint64",
          "name": "expires",
          "type": "uint64"
        },
        {
          "internalType": "bool",
          "name": "valid",
          "type": "bool"
        }
      ],
      "stateMutability": "view",
      "type": "function"
    },
    {
      "inputs": [
        {
          "internalType": "uint256",
          "name": "tokenId",
          "type": "uint256"
        }
      ],
      "name": "isValid",
      "outputs": [
        {
          "internalType": "bool",
          "name": "",
          "type": "bool"
        }
      ],
      "stateMutability": "view",
      "type": "function"
    },
    {
      "inputs": [],
      "name": "skillNFT",
      "outputs": [
        {
          "internalType": "contract ISkillNFT",
          "name": "",
          "type": "address"
        }
      ],
      "stateMutability": "view",
      "type": "function"
    }
  ],
  "bytecode": "0x60a060405234801561000f575f5ffd5b506040516104fe3803806104fe83398101604081905261002e9161003f565b6001600160a01b031660805261006c565b5f6020828403121561004f575f5ffd5b81516001600160a01b0381168114610065575f5ffd5b9392505050565b60805161046061009e5f395f818160740152818160d80152818161019c0152818161024301526102d501526104605ff3fe608060405234801561000f575f5ffd5b506004361061003f575f3560e01c80638dd18d2d1461004357806392ca4bb91461006f578063f577a500146100ae575b5f5ffd5b610056610051366004610361565b6100d1565b6040516100669493929190610378565b60405180910390f35b6100967f000000000000000000000000000000000000000000000000000000000000000081565b6040516001600160a01b039091168152602001610066565b6100c16100bc366004610361565b610221565b6040519015158152602001610066565b5f60605f5f7f00000000000000000000000000000000000000000000000000000000000000006001600160a01b031663c2f1f14a866040518263ffffffff1660e01b815260040161012491815260200190565b602060405180830381865afa15801561013f573d5f5f3e3d5ffd5b505050506040513d601f19601f8201168201806040525081019061016391906103d6565b93506001600160a01b038416610177575f93505b604080516020810182525f815290516311f9118960e31b8152600481018790529093507f00000000000000000000000000000000000000000000000000000000000000006001600160a01b031690638fc88c4890602401602060405180830381865afa1580156101e9573d5f5f3e3d5ffd5b505050506040513d601f19601f8201168201806040525081019061020d9190610403565b915061021885610221565b90509193509193565b604051636178f8a560e11b8152600481018290525f9081906001600160a01b037f0000000000000000000000000000000000000000000000000000000000000000169063c2f1f14a90602401602060405180830381865afa158015610288573d5f5f3e3d5ffd5b505050506040513d601f19601f820116820180604052508101906102ac91906103d6565b90506001600160a01b03811615610358576040516311f9118960e31b81526004810184905242907f00000000000000000000000000000000000000000000000000000000000000006001600160a01b031690638fc88c4890602401602060405180830381865afa158015610322573d5f5f3e3d5ffd5b505050506040513d601f19601f820116820180604052508101906103469190610403565b67ffffffffffffffff16119392505050565b50600192915050565b5f60208284031215610371575f5ffd5b5035919050565b60018060a01b0385168152608060208201525f8451806080840152806020870160a085015e5f60a0828501015260a0601f19601f83011684010191505067ffffffffffffffff84166040830152821515606083015295945050505050565b5f602082840312156103e6575f5ffd5b81516001600160a01b03811681146103fc575f5ffd5b9392505050565b5f60208284031215610413575f5ffd5b815167ffffffffffffffff811681146103fc575f5ffdfea2646970667358221220173960c7c63e829ab105d11696063e7f32c52385c06558c4d6f086263689e63e64736f6c634300081c0033",
  "linkReferences": {},
  "deployedLinkReferences": {},
  "immutableReferences": {
    "5": [
      {
        "length": 32,
        "start": 116
      },
      {
        "length": 32,
        "start": 216
      },
      {
        "length": 32,
        "start": 412
      },
      {
        "length": 32,
        "start": 579
      },
      {
        "length": 32,
        "start": 725
      }
    ]
  },
  "inputSourceName": "project/contracts/CredentialVerifier.sol",
  "buildInfoId": "solc-0_8_28-f59f0084aa3e8b5e21a7bfd3c4b7c8ed39b156ed"
}