{
  "_format": "hh3-artifact-1",
  "contractName": "IssuanceAPI",
  "sourceName": "contracts/IssuanceAPI.sol",
  "abi": [
    {
      "inputs": [
        {
          "internalType": "address",
          "name": "_skillNFT",
          "type": "address"
        },
        {
          "internalType": "address",
          "name": "_backend",
          "type": "address"
        }
      ],
      "stateMutability": "nonpayable",
      "type": "constructor"
    },
    {
      "anonymous": false,
      "inputs": [
        {
          "indexed": true,
          "internalType": "uint256",
          "name": "tokenId",
          "type": "uint256"
        },
        {
          "indexed": true,
          "internalType": "address",
          "name": "user",
          "type": "address"
        }
      ],
      "name": "CredentialIssued",
      "type": "event"
    },
    {
      "inputs": [],
      "name": "backend",
      "outputs": [
        {
          "internalType": "address",
          "name": "",
          "type": "address"
        }
      ],
      "stateMutability": "view",
      "type": "function"
    },
    {
      "inputs": [
        {
          "internalType": "address",
          "name": "user",
          "type": "address"
        },
        {
          "internalType": "string",
          "name": "uri",
          "type": "string"
        },
        {
          "internalType": "uint64",
          "name": "expires",
          "type": "uint64"
        },
        {
          "internalType": "string",
          "name": "skill",
          "type": "string"
        }
      ],
      "name": "issueCredential",
      "outputs": [
        {
          "internalType": "uint256",
          "name": "",
          "type": "uint256"
        }
      ],
      "stateMutability": "nonpayable",
      "type": "function"
    },
    {
      "inputs": [],
      "name": "skillNFT",
      "outputs": [
        {
          "internalType": "contract ISkillNFT",
          "name": "",
          "type": "address"
        }
      ],
      "stateMutability": "view",
      "type": "function"
    }
  ],
  "bytecode": "0x60c060405234801561000f575f5ffd5b506040516104d73803806104d783398101604081905261002e91610060565b6001600160a01b039182166080521660a052610091565b80516001600160a01b038116811461005b575f5ffd5b919050565b5f5f60408385031215610071575f5ffd5b61007a83610045565b915061008860208401610045565b90509250929050565b60805160a05161041a6100bd5f395f81816048015260db01525f818160ad0152610153015261041a5ff3fe608060405234801561000f575f5ffd5b506004361061003f575f3560e01c8063099e4133146100435780635b15b6c31461008757806392ca4bb9146100a8575b5f5ffd5b61006a7f000000000000000000000000000000000000000000000000000000000000000081565b6040516001600160a01b0390911681526020015b60405180910390f35b61009a6100953660046102af565b6100cf565b60405190815260200161007e565b61006a7f000000000000000000000000000000000000000000000000000000000000000081565b5f336001600160a01b037f0000000000000000000000000000000000000000000000000000000000000000161461013a5760405162461bcd60e51b815260206004820152600b60248201526a139bdd08189858dad95b9960aa1b604482015260640160405180910390fd5b60405163562bf3f160e01b81525f906001600160a01b037f0000000000000000000000000000000000000000000000000000000000000000169063562bf3f19061018e90899089908990899060040161037d565b6020604051808303815f875af11580156101aa573d5f5f3e3d5ffd5b505050506040513d601f19601f820116820180604052508101906101ce91906103cd565b9050856001600160a01b0316817fbf94256c91da1335919ad62c5685e1dc105a64235fbbfd7a039ccedec4eb20e460405160405180910390a395945050505050565b634e487b7160e01b5f52604160045260245ffd5b5f82601f830112610233575f5ffd5b813567ffffffffffffffff81111561024d5761024d610210565b604051601f8201601f19908116603f0116810167ffffffffffffffff8111828210171561027c5761027c610210565b604052818152838201602001851015610293575f5ffd5b816020850160208301375f918101602001919091529392505050565b5f5f5f5f608085870312156102c2575f5ffd5b84356001600160a01b03811681146102d8575f5ffd5b9350602085013567ffffffffffffffff8111156102f3575f5ffd5b6102ff87828801610224565b935050604085013567ffffffffffffffff8116811461031c575f5ffd5b9150606085013567ffffffffffffffff811115610337575f5ffd5b61034387828801610224565b91505092959194509250565b5f81518084528060208401602086015e5f602082860101526020601f19601f83011685010191505092915050565b6001600160a01b03851681526080602082018190525f906103a09083018661034f565b67ffffffffffffffff8516604084015282810360608401526103c2818561034f565b979650505050505050565b5f602082840312156103dd575f5ffd5b505191905056fea2646970667358221220a6205840044d1fe3e00069cd749ae1811ef034d6c6c0b9b5a0b72035978bb59564736f6c634300081c0033",
  "linkReferences": {},
  "deployedLinkReferences": {},
  "immutableReferences": {
    "5": [
      {
        "length": 32,
        "start": 173
      },
      {
        "length": 32,
        "start": 339
      }
    ],
    "7": [
      {
        "length": 32,
        "start": 72
      },
      {
        "length": 32,
        "start": 219
      }
    ]
  },
  "inputSourceName": "project/contracts/IssuanceAPI.sol",
  "buildInfoId": "solc-0_8_28-0ae51c5ac5ab09c843d1c860580254be772a3178"
}